:020000040000FA
:04000000E5EF3DF0FB
:107BCA000F6A0E6A0D6A0C6A0001ECEF3DF0720E44
:107BDA00D36E000E936E030E956E010E80EC3EF08E
:107BEA00010E00EC3EF0010E80EC3FF0010E00ECBD
:107BFA003FF000EF00F00B6E000E086E000E83B02F
:107C0A00010E096E000E83B2010E0A6E0EC004F058
:107C1A000FC005F00CC006F00DC007F081828190FC
:107C2A00818481888196818A71EF3EF0000E83B04B
:107C3A00010E0918D8B424EF3EF026EF3EF02CEFDF
:107C4A003EF00E4A0F2A000E83B0010E096E000E96
:107C5A0083B2010E0A18D8B435EF3EF037EF3EF082
:107C6A003DEF3EF00C4A0D2A000E83B2010E0A6E59
:107C7A000B50D30DF3CF01F0F4CF02F004500126DC
:107C8A000550022201500E5C0F50800A036E02500A
:107C9A00800A0358D8B054EF3EF056EF3EF06FEF2B
:107CAA003EF00B50D30DF3CF01F0F4CF02F00650A3
:107CBA0001260750022201500C5C0D50800A036E07
:107CCA000250800A0358D8A06DEF3EF06FEF3EF0E5
:107CDA0071EF3EF0010E086E0850D8B477EF3EF00F
:107CEA0079EF3EF01BEF3EF081828190819481888A
:107CFA008196819A12000B6E000E086E000E83B0F8
:107D0A00010E096E000E83B2010E0A6E0EC004F057
:107D1A000FC005F00CC006F00DC007F0818281800B
:107D2A00819481888186819AF1EF3EF0000E83B0BA
:107D3A00010E0918D8B4A4EF3EF0A6EF3EF0ACEF5E
:107D4A003EF00E4A0F2A000E83B0010E096E000E95
:107D5A0083B2010E0A18D8B4B5EF3EF0B7EF3EF081
:107D6A00BDEF3EF00C4A0D2A000E83B2010E0A6ED8
:107D7A000B50D30DF3CF01F0F4CF02F004500126DB
:107D8A000550022201500E5C0F50800A036E025009
:107D9A00800A0358D8B0D4EF3EF0D6EF3EF0EFEFAA
:107DAA003EF00B50D30DF3CF01F0F4CF02F00650A2
:107DBA0001260750022201500C5C0D50800A036E06
:107DCA000250800A0358D8A0EDEF3EF0EFEF3EF0E4
:107DDA00F1EF3EF0010E086E0850D8B4F7EF3EF00E
:107DEA00F9EF3EF09BEF3EF0818281908194818889
:107DFA008196819A12000B6E000E086E000E83B0F7
:107E0A00010E096E000E83B2010E0A6E0EC004F056
:107E1A000FC005F00CC006F00DC007F081828190FA
:107E2A00818481888186819A71EF3FF0000E83B048
:107E3A00010E0918D8B424EF3FF026EF3FF02CEFDB
:107E4A003FF00E4A0F2A000E83B0010E096E000E93
:107E5A0083B2010E0A18D8B435EF3FF037EF3FF07E
:107E6A003DEF3FF00C4A0D2A000E83B2010E0A6E56
:107E7A000B50D30DF3CF01F0F4CF02F004500126DA
:107E8A000550022201500E5C0F50800A036E025008
:107E9A00800A0358D8B054EF3FF056EF3FF06FEF27
:107EAA003FF00B50D30DF3CF01F0F4CF02F00650A0
:107EBA0001260750022201500C5C0D50800A036E05
:107ECA000250800A0358D8A06DEF3FF06FEF3FF0E1
:107EDA0071EF3FF0010E086E0850D8B477EF3FF00B
:107EEA0079EF3FF01BEF3FF0818281908194818886
:107EFA008196819A12000B6E000E086E000E83B0F6
:107F0A00010E096E000E83B2010E0A6E0EC004F055
:107F1A000FC005F00CC006F00DC007F08182818009
:107F2A00819481888196818AF1EF3FF0000E83B0B7
:107F3A00010E0918D8B4A4EF3FF0A6EF3FF0ACEF5A
:107F4A003FF00E4A0F2A000E83B0010E096E000E92
:107F5A0083B2010E0A18D8B4B5EF3FF0B7EF3FF07D
:107F6A00BDEF3FF00C4A0D2A000E83B2010E0A6ED5
:107F7A000B50D30DF3CF01F0F4CF02F004500126D9
:107F8A000550022201500E5C0F50800A036E025007
:107F9A00800A0358D8B0D4EF3FF0D6EF3FF0EFEFA6
:107FAA003FF00B50D30DF3CF01F0F4CF02F006509F
:107FBA0001260750022201500C5C0D50800A036E04
:107FCA000250800A0358D8A0EDEF3FF0EFEF3FF0E0
:107FDA00F1EF3FF0010E086E0850D8B4F7EF3FF00A
:107FEA00F9EF3FF09BEF3FF0818281908194818885
:067FFA008196819A12003D
:020000040020DA
:08000000FFFFFFFFFFFFFFFF00
:020000040030CA
:0E00000000091F1EFF0181FF0FC00FE00F401F
:00000001FF
