:020000040000FA
:0400000007EF00F016
:0A0008005282A5ED1BF048EF1BF03B
:1008000000252E326600494E46004E414E00696E6C
:1008100066006E616E006C660000000E00017B6F6A
:10082000000E7A6F36C08CF037C08DF038C08EF075
:1008300039C08FF08FBF21EF04F01FEF04F037EFC6
:1008400004F0000E7B6F010E7A6F8CC007F08DC034
:1008500008F08EC009F08FC00AF0F5EC1AF007C05E
:100860008CF008C08DF009C08EF00AC08FF0000E29
:100870000001936F000E926F4CC07FF04DC080F06E
:100880007A517B11D8A447EF04F049EF04F050EF00
:1008900004F050A44EEF04F050EF04F06AEF04F0BF
:1008A0007A517B11D8A457EF04F059EF04F05FEFB1
:1008B00004F0000E656F2B0E646F63EF04F0000E02
:1008C000656F2D0E646F64C000F1924B932B7F0710
:1008D000D8A080078CC007F08DC008F08EC009F04A
:1008E0008FC00AF00CEC16F007040810D8A47BEFB8
:1008F00004F07DEF04F0D4EF04F0BF0E3B6EFF0E6A
:100900003C6E3A503D6E3E6A3B503D263C503E2286
:100910003E500AE11A0E3D5CD8A091EF04F094EF2E
:1009200004F0010E95EF04F0000E0001666F676B96
:1009300066516711D8B49FEF04F0A1EF04F0AFEF58
:1009400004F0000E9225076E010E9321086E060E2C
:10095000096E080E0A6EA6EC19F0BBEF04F0000E4B
:100960009225076E010E9321086E0E0E096E080E79
:100970000A6EA6EC19F00001FD0E7F27FF0E802302
:1009800034C017F035C018F0000E196E010E1A6E43
:100990007FC01BF080C01CF0BDEC17F017C034F016
:1009A00018C035F0E5EF09F08CC007F08DC008F0F5
:1009B0008EC009F08FC00AF00CEC16F0075008103A
:1009C000D8A4E5EF04F0E7EF04F027EF05F0BF0E41
:1009D0003B6EFF0E3C6E3A503D6E3E6A3B503D26EC
:1009E0003C503E223E500AE11A0E3D5CD8A0FBEF7F
:1009F00004F0FEEF04F0010EFFEF04F0000E000122
:100A0000686F696B68516911D8B409EF05F00BEF95
:100A100005F019EF05F0000E9225076E010E9321E7
:100A2000086E0A0E096E080E0A6EA6EC19F0BBEFEE
:100A300004F0000E9225076E010E9321086E120E2F
:100A4000096E080E0A6EA6EC19F0BBEF04F0000E5A
:100A50000001946F000E956F800E966F3F0E976F9A
:100A6000000E916F000E906F8CC007F08DC008F0E3
:100A70008EC009F08FC00AF0000E0B6E000E0C6ED7
:100A8000000E0D6E000E0E6E76EC18F0D8B04BEF27
:100A900005F04DEF05F0D0EF05F06CEF05F094C0D8
:100AA00007F095C008F096C009F097C00AF0000E54
:100AB0000B6E000E0C6E200E0D6E410E0E6E7AEC5B
:100AC0000EF007C094F008C095F009C096F00AC077
:100AD00097F00001904B912B8CC020F08DC021F03D
:100AE0008EC022F08FC023F0000E0B6E000E0C6E35
:100AF000200E0D6E410E0E6E94C007F095C008F0EA
:100B000096C009F097C00AF07AEC0EF007C024F006
:100B100008C025F009C026F00AC027F08AEC15F0BD
:100B2000D8B095EF05F097EF05F04FEF05F0B7EF70
:100B300005F094C007F095C008F096C009F097C082
:100B40000AF0000E0B6E000E0C6E200E0D6E410EA4
:100B50000E6E8FEC10F007C094F008C095F009C03D
:100B600096F00AC097F000019007D8A091078CC0BA
:100B700020F08DC021F08EC022F08FC023F094C0F1
:100B800024F095C025F096C026F097C027F08AEC97
:100B900015F0D8A0CEEF05F0D0EF05F099EF05F0F5
:100BA0003AC00DF00E6A76EC19F00D500001816F1D
:100BB00081C07EF0670E8119D8A4E1EF05F0E3EF64
:100BC00005F009EF06F04E504F10D8A4EAEF05F0FB
:100BD000ECEF05F0F0EF05F0000E4F6E010E4E6EDB
:100BE0004FBEFDEF05F04F5006E14E04D8B0FBEFCD
:100BF00005F0FDEF05F003EF06F0000E7D6F060E29
:100C00007C6F12EF06F04EC07CF04FC07DF012EF0B
:100C100006F04FBE0EEF06F010EF06F0FDEF05F008
:100C200003EF06F0670E8119D8A419EF06F01BEF49
:100C300006F04AEF06F091AF29EF06F0FC0E905D4A
:100C4000FF0E9159D8A027EF06F029EF06F048EFE4
:100C500006F0FF0E3B6EFF0E3C6E7CC03DF07DC08B
:100C60003EF03B503D263C503E2290513D5C3E5074
:100C7000800A3F6E9151800A3F58D8A042EF06F09B
:100C800044EF06F048EF06F0660E7E6F4AEF06F07E
:100C9000650E7E6F7CC074F07DC075F0670E8119A3
:100CA000D8A455EF06F057EF06F067EF06F0660E92
:100CB0007E19D8A45EEF06F060EF06F069EF06F04B
:100CC00091BF67EF06F065EF06F069EF06F0744B31
:100CD000752B660E7E19D8A470EF06F072EF06F041
:100CE00092EF06F091BF79EF06F077EF06F085EF0F
:100CF00006F0000E946F000E956F800E966F3F0EFB
:100D0000976F000E916F000E906F670E8119D8B427
:100D10008CEF06F08EEF06F092EF06F090517427FC
:100D200091517523000E8B6F000E8A6F8CC082F07C
:100D30008DC083F08EC084F08FC085F094C060F0C9
:100D400095C061F096C062F097C063F023EF07F0A2
:100D500082C007F083C008F084C009F085C00AF0A3
:100D600094C00BF095C00CF096C00DF097C00EF03B
:100D70008FEC10F007C020F008C021F009C022F06D
:100D80000AC023F05CEC12F020C086F021C087F08E
:100D900022C088F023C089F086C007F087C008F021
:100DA00088C009F089C00AF007EC15F007C078F098
:100DB00008C079F082C020F083C021F084C022F006
:100DC00085C023F094C00BF095C00CF096C00DF0D8
:100DD00097C00EF086C007F087C008F088C009F001
:100DE00089C00AF07AEC0EF007C024F008C025F0A4
:100DF00009C026F00AC027F074EC1AF020C082F077
:100E000021C083F022C084F023C085F094C007F095
:100E100095C008F096C009F097C00AF0000E0B6E5E
:100E2000000E0C6E200E0D6E410E0E6E8FEC10F04B
:100E300007C094F008C095F009C096F00AC097F07A
:100E400000018A4B8B2B74518A5D8B51800A3B6E5B
:100E50007551800A3B58D8A030EF07F032EF07F009
:100E6000A8EF06F094C007F095C008F096C009F00E
:100E700097C00AF0000E0B6E000E0C6EA00E0D6EE9
:100E8000400E0E6E7AEC0EF007C086F008C087F0B8
:100E900009C088F00AC089F082C020F083C021F028
:100EA00084C022F085C023F086C024F087C025F0DE
:100EB00088C026F089C027F08AEC15F0D8B063EF1F
:100EC00007F065EF07F070EF07F0000E0001866F86
:100ED000000E876F000E886F000E896F99EF07F084
:100EE00082C007F083C008F084C009F085C00AF012
:100EF00086C00BF087C00CF088C00DF089C00EF0E2
:100F000076EC18F0D8A087EF07F089EF07F099EF9B
:100F100007F0000178B18FEF07F091EF07F099EF3C
:100F200007F0000E866F000E876F000E886F000EB0
:100F3000896F8CC007F08DC008F08EC009F08FC09B
:100F40000AF086C00BF087C00CF088C00DF089C095
:100F50000EF0E6EC09F007C082F008C083F009C08B
:100F600084F00AC085F060C094F061C095F062C062
:100F700096F063C097F0650E00017E19D8B4C3EFF8
:100F800007F0C5EF07F0CBEF07F090C076F091C007
:100F900077F0CFEF07F0000E776F000E766F000E40
:100FA000736F000E726F000E716F000E706F000E87
:100FB0008B6F000E8A6FCBEF08F082C007F083C002
:100FC00008F084C009F085C00AF094C00BF095C009
:100FD0000CF096C00DF097C00EF08FEC10F007C02B
:100FE00020F008C021F009C022F00AC023F05CEC18
:100FF00012F020C086F021C087F022C088F023C004
:1010000089F086C007F087C008F088C009F089C061
:101010000AF007EC15F007C078F008C079F050B876
:1010200014EF08F016EF08F034EF08F000017851E3
:101030007911D8A41EEF08F020EF08F034EF08F083
:10104000670E8119D8A427EF08F029EF08F034EFD4
:1010500008F077BF30EF08F02EEF08F034EF08F01B
:10106000704B712B7FEF08F0000172517311D8A4FF
:101070003CEF08F03EEF08F068EF08F077BF45EF6F
:1010800008F043EF08F068EF08F0000E9225D96EE3
:10109000010E9321DA6E2E0EDF6E924B932B7F079B
:1010A000D8A08007000E736F010E726F68EF08F012
:1010B000000E9225D96E010E9321DA6E300EDF6E8E
:1010C000924B932B7F07D8A080077007D8A0710799
:1010D00070517111D8A46FEF08F071EF08F058EF5C
:1010E00008F0000E9225D96E010E9321DA6E785128
:1010F000300FDF6E924B932B7F07D8A0800782C002
:1011000020F083C021F084C022F085C023F094C079
:101110000BF095C00CF096C00DF097C00EF086C095
:1011200007F087C008F088C009F089C00AF07AEC9F
:101130000EF007C024F008C025F009C026F00AC050
:1011400027F074EC1AF020C082F021C083F022C096
:1011500084F023C085F094C007F095C008F096C0D5
:1011600009F097C00AF0000E0B6E000E0C6E200EF8
:101170000D6E410E0E6E8FEC10F007C094F008C09B
:1011800095F009C096F00AC097F000017607D8A044
:1011900077078A4B8B2B74518A5D8B51800A3B6E8B
:1011A0007551800A3B58D8B0D8EF08F0DAEF08F054
:1011B000E8EF08F093BFE6EF08F0935109E14B0E1A
:1011C000925DD8A0E6EF08F0E8EF08F0DDEF07F059
:1011D00072517311D8A4EFEF08F0F1EF08F002EFAD
:1011E00009F050A8F6EF08F0F8EF08F002EF09F068
:1011F000000E9225D96E010E9321DA6E2E0EDF6E4F
:10120000924B932B000E9225D96E010E9321DA6E2C
:10121000000EDF6E650E7E19D8A411EF09F013EFF2
:1012200009F0C0EF04F0000E8B6F4F0E8A6F000EB6
:101230008A25D96E010E8B21DA6E000EDF6E000E4C
:101240007B6F000E7A6F91BF2AEF09F028EF09F04B
:1012500032EF09F0000E7B6F010E7A6F906D911FD7
:10126000D8B0912B000E7D6F020E7C6F63EF09F0FA
:101270008A07D8A08B07000E8A25D96E010E8B2114
:10128000DA6E90C007F091C008F0000E0A6E0A0EE8
:10129000096E1EEC18F00750300FDF6E90C007F09B
:1012A00091C008F0000E0A6E0A0E096E5BEC17F092
:1012B00007C090F008C091F000017C07D8A07D071E
:1012C0007F07D8A0800790519111D8A46AEF09F048
:1012D0006CEF09F038EF09F07DBF79EF09F07D512F
:1012E00006E17C05D8B077EF09F079EF09F038EF27
:1012F00009F08A07D8A08B077A517B11D8A483EF15
:1013000009F085EF09F08BEF09F0000E6B6F2B0EE3
:101310006A6F8FEF09F0000E6B6F2D0E6A6F000E73
:101320008A25D96E010E8B21DA6E6AC0DFFF7F0736
:10133000D8A080078A07D8A08B07BF0E3B6EFF0E90
:101340003C6E3A503D6E3E6A3B503D263C503E223C
:101350003E500AE11A0E3D5CD8A0B1EF09F0B4EF9F
:1013600009F0010EB5EF09F0000E6E6F6F6B6E5154
:101370006F11D8A4BEEF09F0C0EF09F0C6EF09F075
:10138000000E6D6F650E6C6FCAEF09F0000E6D6F89
:10139000450E6C6F000E8A25D96E010E8B21DA6E18
:1013A0006CC0DFFF7F07D8A08007000E9225076E74
:1013B000010E9321086E000E8A25096E010E8B2105
:1013C0000A6EA6EC19F0C0EF04F012000A50800B70
:1013D000136E0A500A24156E09AEF1EF09F0F3EF0F
:1013E00009F0F4EF09F015801550D8B4FAEF09F0C0
:1013F000FCEF09F011EF0AF01528D8A402EF0AF06B
:1014000004EF0AF00CEF0AF0000E076E000E086EF3
:10141000000E096E000E0A6E098E000E0A6E19EF9C
:101420000AF0000E076E000E086E000E096E000E28
:101430000A6E0E50800B146E13501418D8B423EF9C
:101440000AF025EF0AF026EF0AF0138C0E500E2456
:10145000146E0DAE2EEF0AF030EF0AF031EF0AF005
:1014600014801450D8B437EF0AF039EF0AF04EEF79
:101470000AF01428D8A43FEF0AF041EF0AF049EF30
:101480000AF0000E0B6E000E0C6E000E0D6E000EBC
:101490000E6E0D8E000E0E6E56EF0AF0000E0B6EE5
:1014A000000E0C6E000E0D6E000E0E6E1550145CCC
:1014B000D8B05DEF0AF05FEF0AF086EF0AF013ACE8
:1014C00064EF0AF066EF0AF068EF0AF0800E131A74
:1014D00015C016F014C015F016C014F007C016F0B1
:1014E0000BC007F016C00BF008C016F00CC008F0D7
:1014F00016C00CF009C016F00DC009F016C00DF0B2
:101500000AC016F00EC00AF016C00EF0000E166EDD
:10151000155014C00FF0106A0F5E000E105A10BE66
:101520009BEF0AF0105009E11A0E0F5CD8A09BEF58
:101530000AF09DEF0AF0D4EF0AF0075008100910E6
:101540000A10D8A4A6EF0AF0A9EF0AF0010EAAEF3C
:101550000AF0000E166E000E076E000E086E000EEA
:10156000096E000E0A6E14C015F0DDEF0AF016A029
:10157000BCEF0AF0BEEF0AF0C4EF0AF0D8901630C4
:101580000109166EC6EF0AF0D890163207A0CBEF0D
:101590000AF0CDEF0AF0CEEF0AF0168E0A340A32C6
:1015A000093208320732152A1450155CD8A0DBEF37
:1015B0000AF0DDEF0AF0B7EF0AF013BCE2EF0AF031
:1015C000E4EF0AF024EF0BF01550D8A4EAEF0AF08C
:1015D000ECEF0AF0F6EF0AF0000E076E000E086E50
:1015E000000E096E000E0A6E45EF0CF00B50072638
:1015F0000C5008220D5009220E500A220AA003EFB7
:101600000BF005EF0BF0B1EF0BF016A00AEF0BF0AB
:101610000CEF0BF012EF0BF0D89016300109166E9C
:1016200014EF0BF0D890163207A019EF0BF01BEF58
:101630000BF01CEF0BF0168E0A340A320932083216
:101640000732152AB1EF0BF00B50075C0C5008580D
:101650000D5009580A50800A0F6E0E50800A0F581C
:10166000D8B035EF0BF037EF0BF062EF0BF007500F
:101670000B5C0F6E08500C58106E09500D58116E0F
:101680000A500E58126EFF0E0F24076EFF0E102028
:10169000086EFF0E1120096EFF0E12200A6E800EDA
:1016A000131A166C1650D8A458EF0BF05AEF0BF023
:1016B0006AEF0BF0010E0726000E082209220A220B
:1016C0006AEF0BF00B50075E0C50085A0D50095A88
:1016D0000E500A5A0750081009100A10D8A473EFC8
:1016E0000BF075EF0BF0AAEF0BF01650D8A47BEFC0
:1016F0000BF07DEF0BF0AAEF0BF0000E076E000E63
:10170000086E000E096E000E0A6E45EF0CF0D890C0
:101710000736083609360A3616AE91EF0BF093EF0E
:101720000BF094EF0BF0078016A099EF0BF09BEFF6
:101730000BF09FEF0BF0D8801636A1EF0BF0D8908E
:1017400016361550D8B4A7EF0BF0A9EF0BF0AAEF9F
:101750000BF0150609AEAFEF0BF0B1EF0BF087EF12
:101760000BF0000E146E16AEB8EF0BF0BAEF0BF0E4
:10177000D2EF0BF016C00FF07F0E0F16D8B4C3EFE8
:101780000BF0C5EF0BF0C9EF0BF0010E146ED2EFAA
:101790000BF007A0CEEF0BF0D0EF0BF0D2EF0BF079
:1017A000C5EF0BF01450D8B4D8EF0BF0DAEF0BF014
:1017B00005EF0CF0010E0726000E082209220A226E
:1017C0000AA0E5EF0BF0E7EF0BF005EF0CF007C018
:1017D0000FF008C010F009C011F00AC012F0123466
:1017E0001232113210320F320FC007F010C008F061
:1017F00011C009F012C00AF01528D8B402EF0CF09D
:1018000004EF0CF005EF0CF0152A1528D8B40BEFF7
:101810000CF00DEF0CF015EF0CF01550D8A413EFF1
:101820000CF015EF0CF027EF0CF0000E076E000E19
:10183000086E000E096E000E0A6E1550D8A423EF34
:101840000CF025EF0CF027EF0CF0000E136E15A036
:101850002CEF0CF02EEF0CF031EF0CF0098E32EF84
:101860000CF0099ED89015300A6E13AE3AEF0CF0CA
:101870003CEF0CF03DEF0CF00A8E07C007F008C0FB
:1018800008F009C009F00AC00AF0120042C0D9FFEE
:1018900043C0DAFFDECFF6FFDDCFF7FF0800F550DB
:1018A000250AD8A456EF0CF058EF0CF05EEF0EF0BE
:1018B00042C0D9FF43C0DAFFDE2A000EDD22000E4F
:1018C0004D6E000E4C6E4CC050F04DC051F04E6845
:1018D0004F6842C0D9FF43C0DAFFDECFF6FFDDCF4D
:1018E000F7FF0800F5502E0AD8A479EF0CF07BEF33
:1018F0000CF0F9EF0CF0000E4F6E000E4E6E42C071
:10190000D9FF43C0DAFFDE2A000EDD2242C0D9FF34
:1019100043C0DAFFDECFF6FFDDCFF7FF0800F5505A
:101920002A0AD8A496EF0CF098EF0CF0B5EF0CF063
:1019300042C0D9FF43C0DAFFDE2A000EDD2244C0D8
:10194000D9FF45C0DAFFDFCF46F0020EDE26DFCF3B
:1019500047F0000EDD2246C0D9FF47C0DAFFDECFD8
:101960004EF0DDCF4FF0F9EF0CF042C0D9FF43C08D
:10197000DAFFDECF0EF0DDCF0FF03FEC14F00EC03B
:101980004EF00FC04FF0CCEF0CF042C0D9FF43C077
:10199000DAFFDE2A000EDD22D00E466EFF0E476E05
:1019A00042C0D9FF43C0DAFFDECFF6FFDDCFF7FF3D
:1019B0000800F550486E496A46504826475049226B
:1019C00049500AE10A0E485CD8A0E9EF0CF0ECEFB0
:1019D0000CF0010EEDEF0CF0000E0001986F996B0A
:1019E00098519911D8A4F7EF0CF0F9EF0CF0C5EF6E
:1019F0000CF042C0D9FF43C0DAFFDECFF6FFDDCFE7
:101A0000F7FF0800F5500D6E0E6A76EC19F00D50D8
:101A10000001A06FA051D8B410EF0DF012EF0DF03F
:101A20004CEF0DF042C0D9FF43C0DAFFDECF46F0E5
:101A3000DDCF47F0010E4626000E472246C0F6FFD6
:101A400047C0F7FF0800F5500D6E0E6A76EC19F0EE
:101A50000D500001A16FA151D8B431EF0DF033EF5B
:101A60000DF04CEF0DF042C0D9FF43C0DAFFDECFDE
:101A700046F0DDCF47F0020E4626000E472246C054
:101A8000F6FF47C0F7FF0800F5500D6E0E6A76ECC2
:101A900019F00D500001A26F660EA019D8A453EFE3
:101AA0000DF055EF0DF095EF0DF042C0D9FF43C09A
:101AB000DAFFDECFF6FFDDCFF7FF0800F5CFA3F0AA
:101AC00042C0D9FF43C0DAFFDE2A000EDD2244C047
:101AD000D9FF45C0DAFFDFCF46F0040EDE26DFCFA8
:101AE00047F0000EDD2246C0D9FF47C0DAFFDECF47
:101AF0009CF0DECF9DF0DECF9EF0DECF9FF040C0A9
:101B000034F041C035F09CC036F09DC037F09EC027
:101B100038F09FC039F0A3C03AF00DEC04F034C0A7
:101B200040F035C041F079EF0EF0A00E076E000EC8
:101B3000086E160E096E080E0A6E000E0C6E020E6E
:101B40000B6E8BEC16F007500810D8A4AAEF0DF01E
:101B5000ACEF0DF028EF0EF042C0D9FF43C0DAFF22
:101B6000DECF46F0DDCF47F0010E4626000E4722BD
:101B700046C0F6FF47C0F7FF0800F5CFA3F0BF0E41
:101B8000466EFF0E476E42C0D9FF43C0DAFFDECF7C
:101B9000F6FFDDCFF7FF0800F550486E496A465062
:101BA00048264750492249500AE11A0E485CD8A0FD
:101BB000DCEF0DF0DFEF0DF0010EE0EF0DF0000EA9
:101BC00000019A6F9B6B9A519B11D8B4EAEF0DF00C
:101BD000ECEF0DF006EF0EF044C0D9FF45C0DAFF80
:101BE000DFCF46F0040EDE26DFCF47F0000EDD2209
:101BF00046C0D9FF47C0DAFFDECF9CF0DECF9DF0B4
:101C0000DECF9EF0DECF9FF01EEF0EF044C0D9FF76
:101C100045C0DAFFDFCF46F0040EDE26DFCF47F007
:101C2000000EDD2246C0D9FF47C0DAFFDECF9CF0B0
:101C3000DECF9DF0DECF9EF0DECF9FF0020E42C0E1
:101C4000D9FF43C0DAFFDE26000EDD227FEF0DF064
:101C500042C0D9FF43C0DAFFDECFF6FFDDCFF7FF8A
:101C60000800F550250AD8A438EF0EF03AEF0EF030
:101C700051EF0EF042C0D9FF43C0DAFFDE2A000E5A
:101C8000DD22000E086E250E076E40C009F041C02F
:101C90000AF0F6EC16F0000E416E010E406E79EF80
:101CA0000EF042C0D9FF43C0DAFFDE2A000EDD226B
:101CB000000E416E000E406E79EF0EF042C0D9FF6B
:101CC00043C0DAFFDECFF6FFDDCFF7FF0800F550A7
:101CD000076E086A40C009F041C00AF0F6EC16F041
:101CE00042C0D9FF43C0DAFFDE2A000EDD224BEFEF
:101CF0000EF012000A50800B136E0A500A24196E5F
:101D000009AE85EF0EF087EF0EF088EF0EF0198028
:101D10001950D8B48EEF0EF090EF0EF0A3EF0EF046
:101D20001928D8A496EF0EF098EF0EF0A0EF0EF061
:101D3000000E076E000E086E000E096E000E0A6E91
:101D4000098EABEF0EF0000E076E000E086E000E4F
:101D5000096E000E0A6E0E50800B131A0E500E24E0
:101D6000146E0DAEB6EF0EF0B8EF0EF0B9EF0EF048
:101D700014801450D8B4BFEF0EF0C1EF0EF0D4EFC2
:101D80000EF01428D8A4C7EF0EF0C9EF0EF0D1EF73
:101D90000EF0000E0B6E000E0C6E000E0D6E000E9F
:101DA0000E6E0D8EDCEF0EF0000E0B6E000E0C6E44
:101DB000000E0D6E000E0E6E1450D8B4E2EF0EF051
:101DC000E4EF0EF0ECEF0EF01950D8A4EAEF0EF0AD
:101DD000ECEF0EF0F6EF0EF0000E076E000E086E40
:101DE000000E096E000E0A6E8EEF10F00D50070205
:101DF000F3CF1EF0F4CF1FF01E50156E166A176A4F
:101E0000186A1F501A6E1B6A1C6A1D6A0C50080261
:101E1000F3CF1EF0F4CF1FF01E501526000E162231
:101E2000172218221F501A26000E1B221C221D22C8
:101E30000B500902F3CF1EF0F4CF1FF01E501526F1
:101E4000000E1622172218221F501A26000E1B22DF
:101E50001C221D2217C018F016C017F015C016F06E
:101E6000156A0B500802F3CF1EF0F4CF1FF01E507E
:101E700015261F501622000E1722000E18220C5095
:101E80000702F3CF1EF0F4CF1FF01E5015261F508F
:101E90001622000E1722000E182217C018F016C0C6
:101EA00017F015C016F0156A0B500702F3CF1EF09D
:101EB000F4CF1FF01E5015261F501622000E1722B9
:101EC000000E18220D500802F3CF1EF0F4CF1FF0C1
:101ED0001E501A261F501B22000E1C22000E1D220F
:101EE0000C500902F3CF1EF0F4CF1FF01E501A263B
:101EF0001F501B22000E1C22000E1D220D50090235
:101F0000F3CF1EF0F4CF1FF01E500F6E1F50106E57
:101F1000116A126A11C012F010C011F00FC010F057
:101F20000F6A0F501A2610501B2211501C221250FB
:101F30001D2215C00FF016C010F017C011F018C008
:101F400012F0190EA9EF0FF0D890123211321032A0
:101F50000F32E82EA4EF0FF00F501A2610501B225C
:101F600011501C2212501D2217C018F016C017F075
:101F700015C016F0156A145019C00FF0106A0F261C
:101F8000000E1022820E0F241E6EFF0E10201F6EF8
:101F9000DFEF0FF0D8901A361B361C361D3618AE00
:101FA000D4EF0FF0D6EF0FF0D7EF0FF01A80D890E4
:101FB00015361636173618361E06D8A01F061CAE64
:101FC000E4EF0FF0E6EF0FF0CAEF0FF0000E146E23
:101FD00018AEEDEF0FF0EFEF0FF013EF10F0FF0E74
:101FE00015140F6EFF0E1614106EFF0E1714116EDF
:101FF0007F0E1814126E0F50101011101210D8B45A
:1020000004EF10F006EF10F00AEF10F0010E146E5E
:1020100013EF10F01AA00FEF10F011EF10F013EF04
:1020200010F006EF10F01450D8B419EF10F01BEFB9
:1020300010F03FEF10F0010E1A26000E1B221C229A
:102040001D221DA026EF10F028EF10F03FEF10F03A
:102050001AC00FF01BC010F01CC011F01DC012F010
:1020600012341232113210320F320FC01AF010C077
:102070001BF011C01CF012C01DF01E4A1F2A1FBE0B
:102080004AEF10F01F5008E11E28D8A04AEF10F0C8
:102090004CEF10F056EF10F0000E1A6E000E1B6E93
:1020A000800E1C6E7F0E1D6E84EF10F01FBE63EF5E
:1020B00010F01F5006E11E04D8B061EF10F063EF7E
:1020C00010F06FEF10F0000E1A6E000E1B6E000E77
:1020D0001C6E000E1D6E000E136E84EF10F01EC0FD
:1020E00019F0FF0E1A16FF0E1B167F0E1C16000E9F
:1020F0001D1619A07EEF10F080EF10F081EF10F0A8
:102100001C8ED89019301D6E13501D121AC007F086
:102110001BC008F01CC009F01DC00AF012000A50D4
:10212000800B176E0A500A241E6E09AE9AEF10F04B
:102130009CEF10F09DEF10F01E801E50D8B4A3EF5E
:1021400010F0A5EF10F0BAEF10F01E28D8A4ABEFF6
:1021500010F0ADEF10F0B5EF10F0000E076E000EAE
:10216000086E000E096E000E0A6E098E000E0A6ED1
:10217000C2EF10F0000E076E000E086E000E096E22
:10218000000E0A6E0E50800B171A0E500E241F6E92
:102190000DAECDEF10F0CFEF10F0D0EF10F01F80AC
:1021A0001F50D8B4D6EF10F0D8EF10F0EDEF10F0CC
:1021B0001F28D8A4DEEF10F0E0EF10F0E8EF10F0E9
:1021C000000E0B6E000E0C6E000E0D6E000E0E6EED
:1021D0000D8E000E0E6EF5EF10F0000E0B6E000E61
:1021E0000C6E000E0D6E000E0E6E0B500C100D10CE
:1021F0000E10D8A4FEEF10F000EF11F018EF11F060
:10220000000E076E000E086E000E096E000E0A6EBC
:10221000800E09127F0E0A1217500A1207C007F02B
:1022200008C008F009C009F00AC00AF05BEF12F01C
:102230001E50D8A41EEF11F020EF11F02AEF11F07C
:10224000000E076E000E086E000E096E000E0A6E7C
:102250005BEF12F01F501EC00FF0106A0F5E000EF1
:10226000105A7F0E0F24186E000E1020196E07C032
:1022700013F008C014F009C015F00AC016F0000EE3
:10228000076E000E086E000E096E000E0A6E000E3C
:102290001A6E000E1B6E000E1C6E000E1D6E000EE0
:1022A0001F6E8BEF11F01F50D8B459EF11F05BEF98
:1022B00011F072EF11F0D890133614361536163629
:1022C000D8900736083609360A361DAE6AEF11F087
:1022D0006CEF11F06DEF11F00780D8901A361B36B5
:1022E0001C361D360B50135C0C5014580D501558ED
:1022F0000E501658D8A07FEF11F081EF11F08AEF41
:1023000011F01D8C0B50135E0C50145A0D50155AC1
:102310000E50165A1F2A190E1F6491EF11F093EFF9
:1023200011F053EF11F01350141015101610D8B40B
:102330009CEF11F09EEF11F0B6EF11F01A80B6EF9E
:1023400011F0D8900736083609360A361DAEABEFC5
:1023500011F0ADEF11F0AEEF11F00780D8901A3602
:102360001B361C361D361806D8A0190609AEBBEF61
:1023700011F0BDEF11F0A1EF11F0000E1F6E1DAEB8
:10238000C4EF11F0C6EF11F0EAEF11F0FF0E1A14CE
:102390000F6EFF0E1B14106EFF0E1C14116E7F0EBD
:1023A0001D14126E0F50101011101210D8B4DBEF64
:1023B00011F0DDEF11F0E1EF11F0010E1F6EEAEF09
:1023C00011F007A0E6EF11F0E8EF11F0EAEF11F0DD
:1023D000DDEF11F01F50D8B4F0EF11F0F2EF11F073
:1023E00016EF12F0010E0726000E082209220A221B
:1023F0000AA0FDEF11F0FFEF11F016EF12F007C089
:102400000FF008C010F009C011F00AC012F0123429
:102410001232113210320F320FC007F010C008F024
:1024200011C009F012C00AF0184A192A19BE21EF8A
:1024300012F0195008E11828D8A021EF12F023EF6C
:1024400012F02EEF12F0000E196E1868000E076ED3
:10245000000E086E000E096E000E0A6E19BE3BEFEC
:1024600012F0195006E11804D8B039EF12F03BEF22
:1024700012F049EF12F0000E196E000E186E000EE9
:10248000076E000E086E000E096E000E0A6E000E3A
:10249000176E18C01EF01EA050EF12F052EF12F08F
:1024A00055EF12F0098E56EF12F0099ED8901E30AB
:1024B0000A6E0CEF11F01200CAC030F0CBC031F040
:1024C000CCC032F0CDC033F020C030F021C031F0AC
:1024D00022C032F023C033F0810E246EFF0E256E31
:1024E00030C026F031C027F032C028F033C029F0C8
:1024F000180E80EF12F0D890293228322732263277
:10250000E82E7BEF12F0265024242E6E000E25209C
:102510002F6E2FBE95EF12F02F5009E1170E2E5C93
:10252000D8A095EF12F097EF12F0A1EF12F020C0B3
:1025300020F021C021F022C022F023C023F064EF5C
:1025400013F02FBEA6EF12F0A8EF12F018EF13F061
:102550002EC024F0FF0E256EFF0E266E7F0E276E16
:10256000000E286E2466B7EF12F0BFEF12F0283489
:102570002832273226322532242EB2EF12F025C01F
:102580002AF026C02BF027C02CF028C02DF02A50AE
:102590003014246E2B503114256E2C503214266EBC
:1025A0002D503314276E2450251026102710D8A440
:1025B000DCEF12F0DEEF12F0E0EF12F097EF12F026
:1025C00030C024F031C025F032C026F033C027F0EF
:1025D000200EF0EF12F0D890273226322532243226
:1025E000E82EEBEF12F02450251026102710D8B457
:1025F000FCEF12F0FEEF12F006EF13F02A50302637
:102600002B5031222C5032222D5033222A1C246E82
:102610002B1C256E2C1C266E2D1C276E245030166C
:102620002550311626503216275033165CEF13F022
:1026300030C024F031C025F032C026F033C027F07E
:10264000200E28EF13F0D89027322632253224327C
:10265000E82E23EF13F02450251026102710D8A4BD
:1026600034EF13F036EF13F040EF13F0000E306E3E
:10267000000E316E000E326E000E336E5CEF13F002
:10268000D8903034246E3134256E3234266E333493
:10269000276E2450251026102710D8B452EF13F0BF
:1026A00054EF13F05CEF13F0000E306E000E316E3D
:1026B000800E326EBF0E336E30C020F031C021F07C
:1026C00032C022F033C023F012000F6E0F50D8B486
:1026D0006CEF13F06EEF13F090EF13F00ABE75EF8E
:1026E00013F073EF13F090EF13F007C00BF008C076
:1026F0000CF009C00DF00AC00EF00B1E0C1E0D1ED2
:102700000E1E0B2A000E0C220D220E220BC011F001
:102710000CC012F00DC013F00EC014F098EF13F0BF
:1027200007C011F008C012F009C013F00AC014F07D
:102730000750081009100A10D8A4A1EF13F0A3EF56
:1027400013F0ADEF13F0000E076E000E086E000ED2
:10275000096E000E0A6E3EEF14F0960E106EB7EF83
:1027600013F0102AD8901432133212321132000EA4
:1027700011140B6E000E12140C6E000E13140D6E5D
:10278000FE0E14140E6E0B500C100D100E10D8A46B
:10279000CCEF13F0CEEF13F0B1EF13F0DCEF13F04A
:1027A000102A010E1126000E122213221422D89094
:1027B0001432133212321132000E11140B6E000E4D
:1027C00012140C6E000E13140D6EFF0E14140E6E08
:1027D0000B500C100D100E10D8A4F1EF13F0F3EF06
:1027E00013F0D0EF13F0FBEF13F01006D890113672
:1027F00012361336143613BE00EF14F002EF14F045
:102800000AEF14F0020E106008EF14F00AEF14F053
:10281000F5EF13F010B00FEF14F011EF14F012EF0A
:1028200014F0139ED890103210C00BF00C6A0D6A91
:102830000E6A0BC00EF00D6A0C6A0B6A0B50111277
:102840000C5012120D5013120E5014120F50D8B417
:102850002CEF14F02EEF14F036EF14F00ABE35EF23
:1028600014F033EF14F036EF14F0148E11C007F0AB
:1028700012C008F013C009F014C00AF01200000ED4
:102880001C6E000E1B6E000E156E000E146E4BEFCC
:1028900014F00E4A0F2A010E1A6E0EC0F6FF0FC07A
:1028A000F7FF0800F550200AD8B459EF14F05BEF99
:1028B00014F078EF14F0F70E106EFF0E116E0EC0CC
:1028C000F6FF0FC0F7FF0800F550126E136A1050A4
:1028D000122611501322135009E1050E125CD8A0E4
:1028E00074EF14F076EF14F078EF14F0000E1A6E17
:1028F0001AC016F0176A16501710D8A482EF14F0F9
:1029000084EF14F049EF14F08EEF14F0000E156E02
:10291000010E146E0E4A0F2AC3EF14F00EC0F6FF1C
:102920000FC0F7FF0800F550106E116A1150000A31
:10293000D8B49DEF14F0C3EF14F010502B0AD8B4A4
:102940008AEF14F0060AD8B486EF14F0C3EF14F03F
:102950001BC007F01CC008F0000E0A6E0A0E096EBC
:1029600092EC1BF00EC0F6FF0FC0F7FF0800F55009
:10297000075E000E085A300E07241B6E000E08205A
:102980001C6E8AEF14F0D00E106EFF0E116E0EC08A
:10299000F6FF0FC0F7FF0800F550126E136A1050D3
:1029A00012261150132213500AE10A0E125CD8A00D
:1029B000DCEF14F0DFEF14F0010EE0EF14F0000E86
:1029C000186E196A18501910D8A4E9EF14F0EBEF3B
:1029D00014F0A8EF14F014501510D8A4F2EF14F06E
:1029E000F4EF14F002EF15F01BC010F01CC011F052
:1029F000101E111E104A112A10C00EF011C00FF047
:102A000006EF15F01BC00EF01CC00FF012000934C9
:102A10000A34106E1050D8A410EF15F012EF15F014
:102A20001CEF15F0000E076E000E086E000E096E0A
:102A3000000E0A6E89EF15F007C00BF008C00CF00D
:102A400009C00DF00AC00EF0200E2CEF15F0D89042
:102A50000E320D320C320B32E82E27EF15F00B50F0
:102A60000F6E098EFF0E0716FF0E0816FF0E0916D1
:102A7000000E0A16960E105E10BE43EF15F041EFE1
:102A800015F059EF15F01050800A970FD8B04BEFA2
:102A900015F04DEF15F04FEF15F012EF15F0D8903F
:102AA0000A32093208320732103E4FEF15F071EF4B
:102AB00015F01F0E10645FEF15F061EF15F069EF70
:102AC00015F012EF15F0D8900736083609360A3699
:102AD00010061050D8A46FEF15F071EF15F063EFEA
:102AE00015F00F50D8B477EF15F079EF15F081EFAE
:102AF00015F00A1E091E081E076C000E0822092286
:102B00000A2207C007F008C008F009C009F00AC08F
:102B10000AF01200000E2014286E000E2114296EF7
:102B2000800E22142A6E7F0E23142B6E285029103B
:102B30002A102B10D8A49FEF15F0A1EF15F0A9EFE4
:102B400015F0000E206E000E216E000E226E000E9B
:102B5000236E000E2414286E000E2514296E800E9C
:102B600026142A6E7F0E27142B6E285029102A1047
:102B70002B10D8A4BEEF15F0C0EF15F0C8EF15F07C
:102B8000000E246E000E256E000E266E000E276EBF
:102B900023AECDEF15F0CFEF15F0D8EF15F0206C88
:102BA000211ED8B0212A221ED8B0222A800E2356F8
:102BB00027AEDDEF15F0DFEF15F0E8EF15F0246C30
:102BC000251ED8B0252A261ED8B0262A800E2756C4
:102BD000000E201A000E211A000E221A800E231A4F
:102BE000000E241A000E251A000E261A800E271A2F
:102BF0002450205C25502158265022582750235815
:102C0000D8B005EF16F007EF16F00AEF16F0D890DF
:102C10000BEF16F0D8801200CEC011F0CFC012F02A
:102C2000D0C013F0D1C014F007C011F008C012F0EA
:102C300009C013F00AC014F011C00BF012C00CF060
:102C400013C00DF014C00EF0180E2CEF16F0D89033
:102C50000E320D320C320B32E82E27EF16F00B50ED
:102C60000F6E106A0F501010D8A439EF16F03BEF1A
:102C700016F05BEF16F0D89011340B6E12340C6E18
:102C800013340D6E14340E6E0B500C100D100E100C
:102C9000D8A44DEF16F04FEF16F055EF16F0000EDA
:102CA000086E020E076E8AEF16F0000E086E030E15
:102CB000076E8AEF16F00F281010D8A462EF16F0F6
:102CC00064EF16F086EF16F011C00BF012C00CF096
:102CD00013C00DF014C00EF0090ED8900B360C3650
:102CE0000D360E36E82E6DEF16F00B500C100D1051
:102CF0000E10D8B47EEF16F081EF16F0010E82EFC1
:102D000016F0000E076E086A8AEF16F0000E086EC5
:102D1000040E076E120007C00EF008C00FF009C0C5
:102D200010F00AC011F00B06D8A00C060B2806E123
:102D30000C28D8A49EEF16F0A0EF16F0ADEF16F019
:102D4000000E086E000E076EF5EF16F00E4A0F2A01
:102D5000104A112A0B06D8A00C060EC0D9FF0FC0CE
:102D6000DAFFDF50D8B4B7EF16F0B9EF16F0E4EFA2
:102D700016F010C0F6FF11C0F7FF0800F55000096B
:102D8000D8B4C5EF16F0C7EF16F0E4EF16F00B500D
:102D90000C10D8B4CEEF16F0D0EF16F0E4EF16F02A
:102DA0000EC0D9FF0FC0DAFFDF500D6E10C0F6FF66
:102DB00011C0F7FF0800F5500D18D8B4E2EF16F077
:102DC000E4EF16F0A6EF16F00EC0D9FF0FC0DAFF41
:102DD000DF500D6E10C0F6FF11C0F7FF0800F55070
:102DE0000D5C076E086AD8A00806120009500A1088
:102DF000D8B4FDEF16F0FFEF16F008EF17F009500A
:102E00000A10D8A406EF17F008EF17F00DEF17F02F
:102E10000750EFEC1BF05AEF17F020EE04F00950CA
:102E2000D9260A50DA22DE50DE10D8B41AEF17F095
:102E30001CEF17F037EF17F020EE04F00950D926F9
:102E40000A50DA2210EE02F00950E1260A50E2227E
:102E5000DE50E65CE650800A0F6EDE50800A0F58A6
:102E6000D8B035EF17F037EF17F05AEF17F020EE24
:102E700002F00950D9260A50DA22DECF0BF0DDCF5E
:102E80000CF009C0D9FF0AC0DAFFDECF0DF0DDCFAC
:102E90000EF00B500D24D96E0C500E20DA6E07C0C8
:102EA000DFFF20EE02F00950D9260A50DA22DE2A8E
:102EB000000EDD221200000E0C6E0ABE64EF17F049
:102EC00062EF17F06AEF17F0096C0A1ED8B00A2AF1
:102ED000010E0C6E08BE71EF17F06FEF17F077EF71
:102EE00017F0076C081ED8B0082A010E0C1A000E45
:102EF0000E6E000E0D6E09500A10D8B482EF17F056
:102F000084EF17F0ACEF17F0010E0B6E8CEF17F09B
:102F1000D89009360A360B2A0AAE91EF17F093EFD4
:102F200017F088EF17F0D8900D360E360950075C71
:102F30000A500858D8A09FEF17F0A1EF17F0A6EF9E
:102F400017F00950075E0A50085A0D80D8900A32CF
:102F500009320B2E93EF17F00C50D8B4B2EF17F0E4
:102F6000B4EF17F0B8EF17F00D6C0E1ED8B00E2AA4
:102F70000DC007F00EC008F0120050A0C2EF17F00D
:102F8000C4EF17F0CEEF17F019C010F01AC011F00F
:102F900017C012F018C013F097EC1AF01CBED3EF54
:102FA00017F0D5EF17F0DBEF17F01BC020F01CC0B7
:102FB00021F0DFEF17F0000E216E000E206E000EE4
:102FC0001F6E000E1E6EF1EF17F0000E086E200E41
:102FD000076E17C009F018C00AF0F6EC16F01E4A8A
:102FE0001F2A20501E5C1F50800A1D6E2150800A2F
:102FF0001D58D8A0FEEF17F000EF18F0E5EF17F01E
:1030000050B005EF18F007EF18F011EF18F019C0E5
:1030100010F01AC011F017C012F018C013F097EC9E
:103020001AF019C007F01AC008F02DEC1BF0205060
:103030000724176E21500820186E1200000E0C6E27
:1030400008BE27EF18F025EF18F02DEF18F0076CE9
:10305000081ED8B0082A010E0C6E0ABE34EF18F014
:1030600032EF18F038EF18F0096C0A1ED8B00A2AAF
:1030700009500A10D8B43FEF18F041EF18F065EF8F
:1030800018F0010E0B6E49EF18F0D89009360A3689
:103090000B2A0AAE4EEF18F050EF18F045EF18F07B
:1030A0000950075C0A500858D8A059EF18F05BEF98
:1030B00018F05FEF18F00950075E0A50085AD890D0
:1030C0000A3209320B2E50EF18F00C50D8B46BEFC7
:1030D00018F06DEF18F071EF18F0076C081ED8B0FB
:1030E000082A07C007F008C008F01200000E0714F5
:1030F0000F6E000E0814106E800E0914116E7F0EF4
:103100000A14126E0F50101011101210D8A48BEF69
:1031100018F08DEF18F095EF18F0000E076E000E06
:10312000086E000E096E000E0A6E000E0B140F6E74
:10313000000E0C14106E800E0D14116E7F0E0E1406
:10314000126E0F50101011101210D8A4AAEF18F020
:10315000ACEF18F0B4EF18F0000E0B6E000E0C6E12
:10316000000E0D6E000E0E6E0B5007180FE10C5086
:1031700008180CE10D50091809E10E500A18D8B4CE
:10318000C4EF18F0C6EF18F0C9EF18F0D890CAEFE6
:1031900018F0D8801200720ED36EDFEC1BF061ECD9
:1031A0001BF0E8EC1BF0949C8B8C000E166E070E47
:1031B000156E09EC19F015C0C6F016C0C7F017C09F
:1031C000C8F018C0C9F0BC0E0001AA6F000EAB6FAA
:1031D000010EAC6F080EAD6FC6C0AEF0C7C0AFF049
:1031E000C8C0B0F0C9C0B1F0D4EC19F0030E086E3D
:1031F000E80E076E4FEC1AF0000E106EBC0E116E4A
:10320000000E126E010EB9EC1AF0D5EF18F007EFB0
:1032100000F015C019F0D8901936D89019363C0E28
:103220001916C250C30B1910C26E030EC212C2B2DD
:103230001CEF19F01EEF19F017EF19F0C350C4CFAF
:1032400019F01A6A19C01AF0196A1912000E1A1226
:1032500019C007F01AC008F0000E08BEFF0E096E74
:103260000A6E010E65EC13F007C01BF008C01CF0DD
:1032700009C01DF00AC01EF01BC015F01CC016F0DE
:103280001DC017F01EC018F01200A6C04AF0A7C05B
:103290004BF0000E0001D36F000ED26F63EF19F0F8
:1032A000A4C040F0A5C041F04A0E426E000E436E2D
:1032B000A8C044F0A9C045F046EC0CF04050000115
:1032C000D2274150D3234AC0F6FF4BC0F7FF080076
:1032D000F5500009D8A46FEF19F071EF19F050EF15
:1032E00019F0D2C0A4F0D3C0A5F01200BF0E0F6E2B
:1032F000FF0E106E0DC011F00EC012F00F5011260F
:103300001050122212500AE11A0E115CD8A08BEF55
:1033100019F08EEF19F0010E8FEF19F0000E136EF9
:10332000146A13501410D8B498EF19F09AEF19F0EA
:10333000A1EF19F0200E0D100D6E0E500E6EA5EFC0
:1033400019F00DC00DF00EC00EF0120009C00DF006
:103350000AC00EF007C00FF008C010F00D500B6E41
:103360000E500C6E0D4A0E2A0BC0F6FF0CC0F7FF74
:10337000F86A0FC0D9FF10C0DAFF0F4A102A070EF3
:10338000F76403D00800F55005D0F6CFE1FFF7CF82
:10339000E2FFE750DF6EDF50D8A4D1EF19F0D3EF92
:1033A00019F0AEEF19F01200AE0E0001B46F000E6E
:1033B000B56FAAC0B6F0ABC0B7F0000EB96F000E83
:1033C000B86F000EBB6F000EBA6FB60EA46F000E82
:1033D000A56FACC0A6F0ADC0A7F0B40EA86F000EEC
:1033E000A96F45EC19F00001B851AA25D96EB95161
:1033F000AB21DA6E000EDF6E1200010E0D6E200E94
:1034000007180810D8B407EF1AF009EF1AF022EFE6
:103410001AF0F70E096EFF0E0A6E07C00BF008C017
:103420000CF009500B260A500C220C5009E1050E35
:103430000B5CD8A01EEF1AF020EF1AF022EF1AF062
:10344000000E0D6E0DC007F0086A1200000E046E2B
:10345000000E036E43EF1AF0000E066E000E056EAE
:10346000065009E1A50E055CD8A039EF1AF03BEF34
:103470001AF03DEF1AF041EF1AF0054A062A30EF34
:103480001AF0034A042A0150035C02500458D8A0E1
:103490004CEF1AF04EEF1AF02CEF1AF01200000E5B
:1034A0000A6E000E096E68EF1AF0000E0C6E000E28
:1034B0000B6E0B4A0C2A0C5009E1A50E0B5CD8A030
:1034C00064EF1AF066EF1AF059EF1AF0094A0A2A67
:1034D0000750095C08500A58D8A071EF1AF073EF32
:1034E0001AF055EF1AF01200000E241A000E251AD9
:1034F000000E261A800E271A20C007F021C008F0FF
:1035000022C009F023C00AF024C00BF025C00CF043
:1035100026C00DF027C00EF0E6EC09F007C020F041
:1035200008C021F009C022F00AC023F01200000EEA
:10353000166E000E156EA8EF1AF014C007F0086A98
:1035400012C009F013C00AF0F6EC16F0154A162A5C
:1035500015501024D96E16501120DA6EDF50146EFB
:103560001450D8A4B6EF1AF0B8EF1AF09DEF1AF085
:103570001200136E020E1360C0EF1AF0C2EF1AF0C1
:10358000CBEF1AF010500F0B8009146E1450C7ECDB
:103590001BF0D2EF1AF010500F0BC009146E14502C
:1035A000C7EC1BF011C00EF012C00FF07AEC1BF04C
:1035B0001200BF0E096EFF0E0A6E07C00BF008C0A6
:1035C0000CF009500B260A500C220C500AE11A0E7E
:1035D0000B5CD8A0EEEF1AF0F1EF1AF0010EF2EF4B
:1035E0001AF0000E076E086A120007500810091042
:1035F0000A10D8B4FEEF1AF000EF1BF008EF1BF032
:10360000000E071A000E081A000E091A800E0A1A78
:1036100007C007F008C008F009C009F00AC00AF0A6
:103620001200D00E096EFF0E0A6E07C00BF008C024
:103630000CF009500B260A500C220C500AE10A0E1D
:103640000B5CD8A026EF1BF029EF1BF0010E2AEF30
:103650001BF0000E076E086A120007C009F008C0D0
:103660000AF035EF1BF0074A082A07C0D9FF08C047
:10367000DAFFDF50D8A43FEF1BF041EF1BF033EF30
:103680001BF00950075C076E0A500858086E1200BC
:1036900001EE00F0500EEE6AE806FDE100EECAF021
:1036A0000A0EEE6AE806FDE1516A506A4F6A4E6AF8
:1036B0004D6A4C6A52905292000EF86E0001CBEFA8
:1036C00018F0000E086E0F0E076E4FEC1AF0000E89
:1036D000926E040E966E000E956E380EC7EC1BF0BF
:1036E000010EC7EC1BF00C0EC7EC1BF0060EC7EC6E
:1036F0001BF0120085EF1BF00EC0D9FF0FC0DAFFE0
:10370000DF50B8EC1BF00E4A0F2A0EC0D9FF0FC0D5
:10371000DAFFDF50D8A48FEF1BF091EF1BF07CEFA6
:103720001BF0120007500902F3CF0BF0F4CF0CF09E
:1037300007500A02F3500C2608500902F3500C26D9
:103740000BC007F00CC008F0120006008BACABEF0A
:103750001BF0AEEF1BF08B8CAFEF1BF08B9C000EC1
:10376000026EC80E016E26EC1AF0F292529211000F
:103770000D6E0D50D6EC1BF08C848C8600F08C9670
:10378000000E086E010E076E4FEC1AF012000D6E5F
:103790000D50D6EC1BF08C948C8600F08C96000EAD
:1037A000086E030E076E4FEC1AF01200076E07C08A
:1037B00089FF0744E846030B030B8D6E1200070ECA
:1037C000C16E920EC06E000EC46E000EC36E12006B
:1037D0009380000EF16EF292F288F28E12001200C7
:020000040020DA
:08000000FFFFFFFFFFFFFFFF00
:020000040030CA
:0E00000000091F1EFF0181FF0FC00FE00F401F
:00000001FF
